:100000000C9464040C948C040C948C040C94390BA4
:100010000C94630B0C948D0B0C948C040C948C043A
:100020000C948C040C948C040C948C040C948C0410
:100030000C948C040C948C040C948C040C948C0400
:100040000C9413130C948C040C941F100C94A21099
:100050000C948C040C948C040C948C040C948C04E0
:100060000C948C040C948C04636C6F73653A20665A
:1000700061696C65642C206E6F202A434C4F532AB3
:1000800000636C6F73653A20676F74202A434C4F8E
:10009000532A002A434C4F532A00636C6F73650D3B
:1000A000005465726D696E616C20726561647900DF
:1000B000556E657870656374656420726573703A17
:1000C00020004661696C656420746F20636F6E6EFA
:1000D0006563743A20004F50454E2A00656E616298
:1000E0006C65486F7374526573746F72653A2073F0
:1000F000746F7265642000302E302E302E30007305
:10010000656E64746F3A206661696C656420746F13
:1001100020737461727420636F6D6D616E64003C56
:1001200074696D656F75743E00556E6578706563B2
:1001300074656420636861723A20004661696C6589
:100140006420746F20636F6E6E6563743A20004F95
:1001500050454E2A005769466C79206861732063C8
:1001600072617368656420616E642077696C6C20CD
:100170007265626F6F742E2E2E004661696C656425
:1001800020746F206765742070726F6D7074000D3D
:10019000006F70656E20006F70656E20003235351F
:1001A0002E3235352E302E30003136392E32353460
:1001B0002E312E3100363420627974657300506917
:1001C0006E67207472790070696E672000736574C1
:1001D00020752069006C656176650D0047573D000C
:1001E0000D006A6F696E20004173736F63696174FB
:1001F000656421004641494C4544007365742061A3
:1002000064686F632070726F62650073657420614B
:1002100064686F6320626561636F6E00736574204C
:10022000776C616E2074780040420F000080841E5D
:10023000000160EC530002808D5B0008405489008F
:1002400009C0D8A70003001BB7000A80A812010B41
:1002500000366E010C005125020D006CDC020E8090
:10026000F937030F73657420776C616E20726174C7
:100270006500736574206F7074207265706C6163C3
:10028000650073657420776C616E207068726173AD
:10029000650073657420776C616E206B65790073FF
:1002A000657420776C616E206368616E007365749D
:1002B00020776C616E2073736964007365742077B6
:1002C0006C616E2068696465203100736574207309
:1002D000797320696F66756E630073657420636F50
:1002E0006D6D2073697A650073657420636F6D6D41
:1002F000206D617463680073657420636F6D6D2099
:1003000074696D6500302E302E302E3000736574A8
:100310002062726F61646361737420696E746572C8
:1003200076616C007365742075617274206D6F6402
:1003300065007365742074696D6520656E61626C1B
:1003400065007365742074696D65207A6F6E650051
:100350007365742074696D6520706F7274007365C5
:10036000742074696D6520616464726573730073D1
:10037000657420697020666C616773007365742012
:1003800069702070726F746F636F6C007365742096
:10039000697020646863700073657420646E7320F4
:1003A000616464726573730073657420697020679B
:1003B00061746577617900736574206970206E657A
:1003C000746D61736B00736574206970206E657461
:1003D0006D61736B00536574486F73743A20666186
:1003E000696C656420746F20737461727420636F2C
:1003F0006D6D616E64007365742069702072656D47
:100400006F74650073657420697020686F73740081
:1004100073657420697020686F737400736574204D
:100420006970206C6F63616C706F727400736574B7
:100430002069702061646472657373007365742051
:1004400069702061646472657373007365742077EA
:100450006C616E206A6F696E00736574206F206432
:1004600000736574206F20640053657420466163D7
:10047000746F72792044656661756C74730066618F
:1004800063746F727920524553544F52450D002AC0
:100490005265626F6F742A007265626F6F740D002F
:1004A00053746F72696E6700736176650D003C74FA
:1004B000696D656F75743E004552523A2000414F98
:1004C0004B0D0A004552523A2000015544502C0071
:1004D00000025443502C0000045345435552000879
:1004E0005443505F430010485454502C0020524154
:1004F000572C000040534D54502C00534552564544
:1005000052004341434845004155544F4950004F24
:100510004E004F4646006C6F6F6B7570200074691B
:100520006D650D00736C6565700D007365742073E7
:1005300079732077616B6500676574436F6E3A204D
:1005400054435020646973636F6E6E6563746564B1
:1005500000676574436F6E3A2054435020636F6E9A
:100560006E65637465640073686F7720630D006760
:100570006574436F6E3A206661696C656420746FC0
:10058000207374617274004661696C656420746FD5
:1005900020657869740A0D00455849540D0A0065B4
:1005A0007869740D00434D440D0A0024242400434F
:1005B0004D440D0A002424240073657450726F6D3D
:1005C0007074206661696C6564006D756C74694D4A
:1005D000617463685F503A20006D617463685F50B6
:1005E0003A20007265616454696D656F7574202DE1
:1005F0002074696D6564206F7574003A20003A209C
:100600000064656275672064756D7000617661696C
:100610006C61626C653A207065656B203D20002A34
:100620004F50454E2A002A434C4F532A0045525200
:100630004F52207065656B2E32206275666665725A
:10064000206F7665726C6F77004552524F52207062
:1006500065656B2E3120627566666572206F766502
:10066000726C6F77004661696C656420746F2065F9
:1006700078697420636F6D6D616E64206D6F646561
:10068000004661696C656420746F20656E746572E4
:1006900020636F6D6D616E64206D6F6465004661EF
:1006A000696C656420746F2073657420636F6D6D71
:1006B0002072656D6F74650073657420636F6D6D76
:1006C0002072656D6F74652030004661696C6564E9
:1006D00020746F207475726E206F66662073797354
:1006E000207072696E740073657420737973207062
:1006F00072696E746C766C2030004661696C65645A
:1007000020746F207475726E206F66662065636852
:100710006F007365742075206D203100676574204B
:1007200069700D0049503D004E4D3D0047573D005A
:10073000676574206D61630D004D616320416464E1
:10074000723D0067657420776C616E0D00535349EC
:10075000443D00676574206F70740D0044657669D0
:10076000636549643D0067657420750D00426175DD
:1007700064726174653D0073686F772074696D659C
:100780000D0054696D653D00557054696D653D00FF
:100790006765742074696D650D005A6F6E653D0064
:1007A00067657420646E730D0041646472657373D1
:1007B0003D0073686F77207420740D005254433DE0
:1007C00000444843503D004D6F64653D00676574CB
:1007D00020636F6D6D0D00466C75736854696D65AF
:1007E000723D004D61746368436861723D00466C00
:1007F00075736853697A653D0073686F772072730B
:1008000073690D00525353493D282D00464C414712
:10081000533D307800484F53543D0050524F544F91
:100820003D00676574206164686F630D0042656117
:10083000636F6E3D0050726F62653D005265626F7E
:100840006F743D004A6F696E3D00526174653D00F2
:100850005478506F7765723D005265706C616365C6
:100860003D0000000000240027002A0000000000D6
:10087000250028002B00000000002300260029008E
:100880000404040404040404020202020202030336
:10089000030303030102040810204080010204083E
:1008A00010200102040810200000000700020100CF
:1008B000000304060000000000000000D10425062B
:1008C0005C085510D410CA0411241FBECFEFD8E025
:1008D000DEBFCDBF12E0A0E0B1E0E8EBFBE202C07A
:1008E00005900D92AA37B107D9F714E0AAE7B2E054
:1008F00001C01D92AD32B107E1F718E0C6ECD8E0B7
:1009000004C02297FE010E94C015CC3BD107C9F755
:100910000E94FE120C94CF150C9400000F938130AE
:10092000910529F56F5F7F4F99F58AE792E066E0C0
:1009300047E020E00E94650D86E992E065E044E032
:100940002AE00E94B8098DEA92E063E042E029E0E3
:100950000E94B8098AE193E060E040E020E000E016
:100960000E94C81084EC92E00E94850511C0892B7A
:1009700079F46F5F7F4F61F48DEA92E00E94AE09D7
:1009800086E992E00E94AE098AE792E00E94EC0BB1
:100990000F91089580E090E06FEF7FEF0E948E044A
:1009A000089581E090E06FEF7FEF0E948E0408953C
:1009B00086E992E00E9467088F37910510F0109247
:1009C000240286E992E00E946708892B19F481E0ED
:1009D000809324028DE793E00E94730F892BA9F086
:1009E0008DE793E00E948F0F813329F48DEA92E026
:1009F0000E9473080AC0823341F486E992E00E94A3
:100A00007C098DEA92E00E947C098DEA92E00E94C6
:100A1000FE080895EF92FF920F931F930E94930D8B
:100A200006E912E0C8016AE070E00E946B08C801A4
:100A300061E070E00E946F08C8010E948C098DEA95
:100A4000E82E82E0F82EC7016AE070E00E946B0891
:100A5000C70161E070E00E946F08C7010E948C0925
:100A60000DE713E0C80140E052EC61E070E026E0E1
:100A70000E940F0FC8016FE671E00E94EB12C701E0
:100A80006FE770E00E9447091F910F91FF90EF9070
:100A90000895DC011C96ED91FC911D97A081B18118
:100AA00016962D913C911797CF01F901099508955C
:100AB000DC011C96ED91FC911D97A081B1811496EB
:100AC0002D913C911597CF01F90109950895DC010D
:100AD0001C96ED91FC911D97A081B1811A962D91E4
:100AE0003C911B97CF01F90109950895DC011C96F3
:100AF000ED91FC911D97A081B18118962D913C91AB
:100B00001997CF01F90109950895FC01138212820A
:100B100028EE33E040E050E024833583468357835A
:100B20008FE392E091838083ED5BFF4F11921192EE
:100B3000208331834283538334978FE292E0918301
:100B400080833C9611821082ED54F0401586178602
:100B5000168617AA10AE81E0808B818B1486E05B2D
:100B6000FF4F1192119211921192118210820895E9
:100B7000CF93DF93DC01EC01CE5ADF4F288139811E
:100B8000AC5ABF4F8D919C911197A455B040281736
:100B9000390774F4A05BBF4FED91FC911197A055FC
:100BA000B040E20FF31F60832F5F3F4F39832883EC
:100BB000DF96ED91FC91A081B1812D913C91CF0107
:100BC000F9010995DF91CF910895FC0180912803E7
:100BD000882379F4FF960190F081E02DA081B18106
:100BE00018962D913C911997CF01F90109959C0117
:100BF0000AC0E0912903F0E0E65DFC4F8081282FD8
:100C0000332727FD3095C9010895FC01FF96A08187
:100C1000B181ED91FC9111970284F385E02DCD0116
:100C200009950895FC01A485B585109719F420E075
:100C300030E009C0ED91FC9111970190F081E02D19
:100C4000CD0109959C01C90108950F9380E293E0BD
:100C500060E040E020E000E00E94C8100F9108959D
:100C60006F927F928F929F92AF92BF92CF92DF92BC
:100C7000EF92FF920F931F93CF93DF93EC013B0111
:100C80008A010E945B135B016C01780100E010E0B7
:100C90007FE3872E912C8C0E9D1E71C0D401ED91A7
:100CA000FC91A081B18114962D913C911597CF01B3
:100CB000F9010995181619060CF061C0F401A0811C
:100CC000B181ED91FC9111970680F781E02DCD0166
:100CD0000995F82ED3018C93DE01AE5ABF4F2D91AA
:100CE0003C911197CC5ADF4F88819981C455D040EF
:100CF000281739076CF4C05BDF4FE881F981C055D4
:100D0000D040E20FF31FF0822F5F3F4F2D933C93B3
:100D10008C85882391F1CF5BDF4F60912603709122
:100D200027036F5F7F4F7093270360932603615003
:100D30007040CE014AE050E00E94D512CE016BEF28
:100D400075E00E944F110F2D112707FD1095CE0160
:100D5000B80140E150E00E94D512C8010E94C615BA
:100D6000892B41F0CE0160E20E947211CE016F2DFD
:100D70000E947211CE010E947A1181E017C00E9478
:100D80005B136A197B098C099D096E157F05800725
:100D9000910708F483CF8C85882341F0CE018F5BC7
:100DA0009F4F63EE75E00E949A1180E0DF91CF9132
:100DB0001F910F91FF90EF90DF90CF90BF90AF9079
:100DC0009F908F907F906F900895CF92DF92EF92D7
:100DD000FF921F93CF93DF936C019B0160912803D7
:100DE000662309F1442319F02F5F3F4F41E09091B2
:100DF0002903940F15C0F9015491552309F44AC0F1
:100E0000993010F0E0E001C0E92F9F5FF0E0E65D6F
:100E1000FC4F8081851709F05BC02F5F3F4F4F5F0C
:100E2000461748F304C0442311F42F5F3F4FE901F4
:100E30002196F901149191E4E92EF12CEC0CFD1CA2
:100E400032C090933203983010F0109232038091A8
:100E500028038F5F809328038930D0F1C70169E4AC
:100E600076E00E949A1134C090933203983010F0CB
:100E700010923203809128038F5F8093280389307A
:100E800028F0C7016DE276E00E949A11FE011491EC
:100E9000112341F410922803109229031092320377
:100EA00081E017C021966091320370E0665D7C4F4F
:100EB000C60144EF51E00E94300690913203E92FC1
:100EC000F0E0E65DFC4F80819F5F811769F2B9CF4A
:100ED00080E0DF91CF911F91FF90EF90DF90CF9056
:100EE0000895CF93DF93EC01462F6FE176E00E94E7
:100EF000E506882311F081E08FABDF91CF91089553
:100F0000CF93DF93EC01462F66E276E00E94E50680
:100F1000882311F01FAA81E0DF91CF910895CF922D
:100F2000DF92EF92FF920F931F93CF93DF93EC0129
:100F30003FE3E32EF12CE80EF91ED701ED91FC9171
:100F4000A081B18114962D913C911597CF01F901A3
:100F500009956C01181619060CF04FC08C85882372
:100F6000B9F08E010F5B1F4FC8016CE076E00E9464
:100F70004F11F701A081B181ED91FC91119700848F
:100F8000F185E02DCD010995682FC8010E94AE11B1
:100F90002FE3E22EF12CEC0EFD1ED701ED91FC911A
:100FA000A081B18118962D913C911997CF01F9013B
:100FB00009958A9711F58FA9882349F0CE0161E040
:100FC0000E948007882339F02FEF3FEF1BC0CE012E
:100FD00061E00E9471070091280310E0F701A081F1
:100FE000B181ED91FC9111970480F581E02DCD0147
:100FF00009959C01200F311F05C08091280396019F
:10100000280F311DC901DF91CF911F910F91FF90E2
:10101000EF90DF90CF900895CF93DF93EC01209174
:1010200028032223A1F080912903E82FF0E0E65D58
:10103000FC4F90818F5F80932903883010F01092CD
:101040002903E92FF0E021502093280331C0EF96C7
:10105000A881B981EF97ED91FC9111970680F781F6
:10106000E02DCD010995FC018FA9882309F1EA3211
:10107000F105F1F4CE0160E00E948007882319F0A9
:10108000EFEFFFEF15C080912903E82FF0E0E65D58
:10109000FC4F90818F5F80932903883010F010926D
:1010A0002903E92FF0E080912803815080932803E1
:1010B000CF01DF91CF9108950F9383E393E060E038
:1010C00040E020E000E00E94C8100F910895FC016C
:1010D000818592850895FC01768765870895FC01D6
:1010E000728B618B0895FC0182E090E0908787838A
:1010F000148613868DE793E06EE072E00E94EB1297
:101100000895CF93DF93EC01AB016038710510F0C7
:101110004FE750E05C874B878A819B8160E070E0FD
:101120000E947E0A6B857C858DE793E04AE050E063
:101130000E9455128DE793E061E272E00E94E8128E
:101140008A819B8160E070E00E942A0ABC018DE7E1
:1011500093E04AE050E00E946612DF91CF9108953B
:10116000CF93DF93EC010E945B132B893C8940E015
:1011700050E0621B730B840B950B2D853E8540E080
:1011800050E0261737074807590710F080E00CC0D9
:101190006B857C8561507040CE010E9481080E9461
:1011A0005B137C8B6B8B81E0DF91CF910895CF93A4
:1011B000DF93EC010E945B132B893C8940E050E0F7
:1011C000621B730B840B950B2D853E8540E050E030
:1011D000261737074807590710F080E00CC06B85C9
:1011E0007C856F5F7F4FCE010E9481080E945B1358
:1011F0007C8B6B8B81E0DF91CF910895CF93DF9350
:10120000EC018F8198850297A1F42B853C85898517
:101210009A852817390720F4CE010E94D70809C003
:101220002817390731F418861F820E945B137E8BC2
:101230006D8B8F819885039761F48B859C85892BB5
:1012400021F0CE010E94B00804C081E090E09887B0
:101250008F838F819885892BB9F40E945B132D8928
:101260003E8940E050E0621B730B840B950B2F8589
:10127000388940E050E0621773078407950720F033
:1012800083E090E098878F83DF91CF910895CF928C
:10129000DF92EF92FF920F931F936C018B01FC0181
:1012A000728761878281938160E070E0A8010E946B
:1012B0007E0A8DE7E82E83E0F82EC701B8014AE0E8
:1012C00050E00E945512C70161E272E00E94E812EC
:1012D000F6018281938160E070E00E942A0ABC01DD
:1012E000C7014AE050E00E9466121F910F91FF90E3
:1012F000EF90DF90CF9008950F931F938C01FC0126
:10130000858160E00E944B14F801848161E00E94B5
:101310004B141F910F9108950F931F938C01FC01A3
:10132000858161E00E944B14F801848160E00E9495
:101330004B141F910F9108950F931F938C018FE40D
:1013400092E0F80191838083828193810E940D1342
:10135000C8010E940D131F910F910895FC018FE4A5
:1013600092E091838083828193810E940D1308957E
:10137000BF92CF92DF92EF92FF920F931F938C0157
:10138000D62EC42EB22E8FE492E0F8019183808392
:1013900081E190E00E941013F82EE92E6B2D20E0E1
:1013A00030E44CE955E40E949B0AF801F282E382A2
:1013B0008D2D61E00E940C148C2D61E00E940C14B4
:1013C0008D2D61E00E944B148C2D60E00E944B1427
:1013D00091E0E92EF12CF801F28AE18A0E945B1378
:1013E000F801748B638B12861186D482C582F086D5
:1013F000E78288E893E1908B87871F910F91FF9098
:10140000EF90DF90CF90BF9008950F931F93CF93ED
:10141000DF93EC01162F1C60888960E00E944B145A
:101420001EBD0DB407FEFDCF1EB58FEF8EBD0DB4F2
:1014300007FEFDCF0EB5888961E00E944B14912F05
:1014400080E010E0082B192BC801DF91CF911F918C
:101450000F9108956130710511F460E101C060E001
:101460000E94050A9C013170C90108950F931F93D2
:10147000CF93DF93EC01162F042F888960E00E9440
:101480004B141EBD0DB407FEFDCF8EB50EBD0DB4C1
:1014900007FEFDCF8EB5888961E00E944B14DF9175
:1014A000CF911F910F910895FF920F931F93CF93A8
:1014B000DF93EC01F22E4F3F510529F020F0162F5B
:1014C000116000E002C0042F162FCE01612F402FC3
:1014D0000E94360AFF2061F01062CE01612F402F7A
:1014E0000E94360A65E070E080E090E00E94A4135C
:1014F000DF91CF911F910F91FF9008956130710599
:1015000011F460E101C060E021E00E94540A0895F6
:10151000EF92FF921F937C01162F862F61E00E94AD
:101520000C14812F61E00E944B14F701108B1F9166
:10153000FF90EF900895CF92DF92EF92FF920F937A
:101540001F936C0179018A010E94880AF601E086E6
:10155000F1860287138780E090E0ABEEB2E48483EB
:101560009583A683B783C801B70120E030E04BEE36
:1015700052E40E94A014DC019B01AC01F601248717
:10158000358746875787CB0180839183A283B383B6
:101590001F910F91FF90EF90DF90CF9008950F93E0
:1015A0001F93CF93DF93FC01738D76957170A685A1
:1015B000B7859585772329F08C91892309F454C048
:1015C00004C08C91892309F04FC08389948920E05D
:1015D00001972FEF8F3F9207D9F7C589D689A68546
:1015E000B785158560E031E040E050E000E0CE01D5
:1015F000202F01972FEF8F3F9207D9F78C918123EE
:1016000011F0632B03C0832F80956823330F4F5F46
:101610005F4F4830510559F78789908D20E0019739
:101620002FEF8F3F9207D9F77111609580917B035F
:1016300020917C0390E001968F73907030E08217C8
:10164000930779F0E0917B03F0E0E55CFC4F608369
:1016500080917B0390E001968F73907080937B0361
:1016600003C0838D8160838FDF91CF911F910F9194
:1016700008951F920F920FB60F9211242F933F934C
:101680004F935F936F937F938F939F93AF93BF938A
:10169000EF93FF938091390390913A03009711F0F3
:1016A0000E94CF0AFF91EF91BF91AF919F918F91CF
:1016B0007F916F915F914F913F912F910F900FBE4E
:1016C0000F901F9018951F920F920FB60F92112432
:1016D0002F933F934F935F936F937F938F939F933A
:1016E000AF93BF93EF93FF938091390390913A03A7
:1016F000009711F00E94CF0AFF91EF91BF91AF9137
:101700009F918F917F916F915F914F913F912F9119
:101710000F900FBE0F901F9018951F920F920FB64B
:101720000F9211242F933F934F935F936F937F9367
:101730008F939F93AF93BF93EF93FF938091390360
:1017400090913A03009711F00E94CF0AFF91EF9118
:10175000BF91AF919F918F917F916F915F914F91C9
:101760003F912F910F900FBE0F901F901895FC0185
:101770004485463180F5483028F4EDE6F0E0ADE6EA
:10178000B0E00BC04E3028F4EBE6F0E0ABE6B0E0A2
:1017900004C0ECE6F0E0ACE6B0E05081483040F444
:1017A00081E090E002C0880F991F4A95E2F710C0CF
:1017B000242F30E04E3018F42850304002C02E5014
:1017C000304081E090E002C0880F991F2A95E2F72F
:1017D000809585238C930895FC0187E592E09183A1
:1017E0008083CF010E94B70B089520913903309177
:1017F0003A032817390731F490917C0380917B03D9
:10180000981719F42FEF3FEF0FC0E0917C03F0E041
:10181000E55CFC4F208180917C0390E001968F7302
:10182000907080937C0330E0C901089520913903C2
:1018300030913A032817390719F020E030E00EC044
:1018400080917B0320917C0390E0805C9F4F821B02
:10185000910960E470E00E9489159C01C901089516
:101860000F931F93DC0159968D919C915A97892B68
:1018700049F481E090E013969C938E93129720E0B8
:1018800030E097C00FB7F8945B968C915B975196B8
:10189000ED91FC91529750962C91509781FF8DC0FD
:1018A0008081822B808359968D919C915A970596C1
:1018B00020E001972FEF8F3F9207D9F75B968C912D
:1018C0005B9781FF35C031E040E050E070E010E010
:1018D000832F90E0862397235196ED91FC915297A8
:1018E00050962C915097892B29F0808120952823A0
:1018F000208303C08081822B808359968D919C9197
:101900005A97212F01972FEF8F3F9207D9F7330F67
:101910004F5F5F4F48305105D9F65196ED91FC91DC
:101920005297908150968C9150978095892333C01F
:1019300031E040E050E070E010E0832F90E086233B
:1019400097235196ED91FC91529750962C91509778
:10195000892B21F08081822B808304C08081209597
:101960002823208359968D919C915A97212F019776
:101970002FEF8F3F9207D9F7330F4F5F5F4F4830FC
:101980005105D9F65196ED91FC9152978081509670
:101990009C915097892B80830FBF59968D919C9174
:1019A0005A9720E001972FEF8F3F9207D9F721E058
:1019B00030E0C9011F910F9108958081209528235F
:1019C000208371CF2091390330913A0328173907CA
:1019D00049F49FB7F89410927B0380917B03809326
:1019E0007C039FBF08952091390330913A03281753
:1019F000390731F490917C0380917B03981719F497
:101A00002FEF3FEF0AC0E0917C03F0E0E55CFC4F74
:101A10008081282F332727FD3095C90108951F9312
:101A2000CF93DF93EC01162F862F60E00E940C14F9
:101A30008B8D81FD04C0812F61E00E944B141C87B7
:101A4000212F30E0C9018C56974FFC0184918D877E
:101A50002058374FF9016491E62FF0E0EE0FFF1F99
:101A6000EA58F74F859194919F878E87DF91CF91A8
:101A70001F910895FF920F931F938C01F62E862FCE
:101A800061E00E940C148F2D61E00E944B148F2D99
:101A900090E0FC01EC56F74FE491D8015096EC939E
:101AA00050978058974FFC016491E62FF0E0EE0FBD
:101AB000FF1FE459F74F8591949152969C938E9312
:101AC00051971F910F91FF900895FF920F931F93CD
:101AD0008C01F62EFC011382128288EE93E0A0E0C6
:101AE000B0E084839583A683B78387E592E09183F2
:101AF0008083148A138A168A158A108E178A128E8A
:101B0000118E838D2170220F8C7F822B838FC801D1
:101B1000642F0E943A0DC8016F2D0E940F0D1F9176
:101B20000F91FF9008958AE061E00E944B148AE0D3
:101B300061E00E940C148CB580618CBD8CB5806412
:101B40008CBD8DE061E00E940C148BE061E00E948E
:101B50000C1408950F931F93CF93DF93BC01823031
:101B6000910510F462E070E0E0912B04F0912C04F8
:101B7000A0E0B0E040E050E024C080819181861771
:101B80009707D0F08617970771F482819381109799
:101B900029F013969C938E9312972CC090932C044B
:101BA00080932B0427C04115510519F08417950720
:101BB00018F4EF018D01AC01DF01828193819C015A
:101BC000F9013097D1F641155105F9F0CA01861B8C
:101BD000970B8430910580F48A819B810115110552
:101BE00021F0F8019383828304C090932C048093A6
:101BF0002B04FE01329645C0FE01E80FF91F6193E8
:101C000071930297998388833CC0809129049091B5
:101C10002A04892B41F48091270290912802909305
:101C20002A04809329044091290250912A024115E7
:101C3000510541F44DB75EB780912502909126027F
:101C4000481B590B2091290430912A042417350789
:101C5000B0F4CA01821B930B8617970780F0AB0183
:101C60004E5F5F4F8417950750F0420F531F5093FC
:101C70002A0440932904F9016193719302C0E0E0C2
:101C8000F0E0CF01DF91CF911F910F910895CF9395
:101C9000DF939C01009709F48FC0EC0122971B820F
:101CA0001A8260912B0470912C046115710581F4E6
:101CB00088819981820F931F2091290430912A04F1
:101CC0002817390739F5D0932A04C093290474C022
:101CD000DB0140E050E0AC17BD0708F1BB83AA83ED
:101CE000FE0121913191E20FF31FAE17BF0779F486
:101CF0008D919C911197280F391F2E5F3F4F39838B
:101D0000288312968D919C9113979B838A8341150A
:101D1000510571F4D0932C04C0932B044DC012963E
:101D20008D919C911397AD01009711F0DC01D3CFF9
:101D3000DA011396DC93CE931297FA012191319137
:101D4000E20FF31FCE17DF0769F488819981280F0E
:101D5000391F2E5F3F4FFA01318320838A819B8197
:101D600093838283E0E0F0E0DB0112968D919C91F9
:101D70001397009719F0BC01FD01F6CFAB014E5F40
:101D80005F4FDB018D919C91840F951F2091290459
:101D900030912A042817390779F4309729F41092E2
:101DA0002C0410922B0402C0138212824250504025
:101DB00050932A0440932904DF91CF910895DC01C8
:101DC0005C968C915C97FD01E80FF11DE35AFF4F83
:101DD00020815C968C915C9790E001968F73907057
:101DE0005C968C935C975696ED91FC915797208367
:101DF0005096ED91FC9151978081806480835B9631
:101E00009C915B975C968C915C97981739F45296ED
:101E1000ED91FC91539780818F7D80830895DF92AF
:101E2000EF92FF920F931F93CF93DF93EC017A0110
:101E30008B01D22EE889F98982E08083403081EEDF
:101E4000580780E0680780E07807A1F060E079E05B
:101E50008DE390E0A80197010E949C15215030402D
:101E600040405040569547953795279580E1203062
:101E7000380798F0E889F989108260E874E88EE103
:101E800090E0A80197010E949C15215030404040ED
:101E900050405695479537952795EC85FD853083BD
:101EA000EE85FF852083188EEC89FD89D082EA8932
:101EB000FB89808180618083EA89FB8980818860D9
:101EC0008083EA89FB89808180688083EA89FB8935
:101ED00080818F7D8083DF91CF911F910F91FF9043
:101EE000EF90DF900895FC01218D828D30E0205C21
:101EF0003F4F281B31092F733070C9010895FC0131
:101F0000918D828D981719F42FEF3FEF06C0828DC7
:101F1000E80FF11D858D282F30E0C9010895DC01FF
:101F200059969C9159975A968C915A97981719F4EB
:101F30002FEF3FEF10C05A968C915A97FD01E80F92
:101F4000F11D958D5A968C915A978F5F8F735A9683
:101F50008C93292F30E0C9010895CF93DF93EC01D2
:101F6000888D882361F419C08C9185FF0AC0E889A7
:101F7000F989808185FF05C0CE010E94DF0EAA8904
:101F8000BB898C9185FD05C0E889F989808186FD32
:101F900004C00FB607FEE8CFF4CFDF91CF910895CC
:101FA0000F931F93CF93DF93EC01062F9B8D8C8DA6
:101FB000981791F5E889F989808185FF2DC0EE8910
:101FC000FF896083E889F9898081806480831DC0EE
:101FD0000FB607FC08C0E889F989808185FF03C036
:101FE000CE010E94DF0E8C8D181791F38B8DFE01B0
:101FF000E80FF11DE35AFF4F00831B8FEA89FB892D
:1020000080818062808381E0888F81E090E0DF9131
:10201000CF911F910F9108951B8D1F5F1F73E3CF09
:1020200088E990E1892B51F080E090E0892B31F034
:102030000E949810882311F00E94000008951F92BA
:102040000F920FB60F9211242F938F939F93EF93BC
:10205000FF93E0918D03F0918E03808182FD16C085
:10206000E0919303F09194032081909196039F5FF8
:102070009F7380919703981771F0E0919603F0E0B9
:10208000E358FC4F258F9093960305C0E09193038E
:10209000F0919403E081FF91EF919F918F912F91A7
:1020A0000F900FBE0F901F90189510928003109202
:1020B0007F0388EE93E0A0E0B0E0809381039093EB
:1020C0008203A0938303B093840387E692E0909306
:1020D0007E0380937D0385EC90E090938A03809348
:1020E000890384EC90E090938C0380938B0380ECC5
:1020F00090E090938E0380938D0381EC90E0909319
:10210000900380938F0382EC90E0909392038093EE
:10211000910386EC90E09093940380939303109244
:1021200096031092970310929803109299030895C2
:102130008DE793E00E94730F20E0892B09F021E0E6
:10214000822F08951F920F920FB60F9211242F9392
:102150003F934F935F936F937F938F939F93AF932F
:10216000BF93EF93FF938DE793E00E94DF0EFF9103
:10217000EF91BF91AF919F918F917F916F915F91FF
:102180004F913F912F910F900FBE0F901F90189578
:102190000F93FC0187E792E09183808362834383FE
:1021A000248305830F91089587E792E090931B04A1
:1021B00080931A0410921C0410921D0410921E04A5
:1021C00010921F0408958F929F92AF92BF92CF9268
:1021D000DF92EF92FF920F931F93CF93DF934C0107
:1021E0006B017C01AA24BB24C0E0D0E0C601F7014A
:1021F00062814AE050E00E9483128C01C6016EE2C7
:102200000E947211080F191FA00EB11E219608948A
:10221000E11CF11CC330D10549F7C601F401658109
:102220004AE050E00E9483129501280F391FC9012E
:10223000DF91CF911F910F91FF90EF90DF90CF90A2
:10224000BF90AF909F908F900895CF92DF92EF92C2
:10225000FF920F931F93CF93DF937C016B018A0151
:10226000C0E0D0E00FC0D6016D916D01D701ED91B6
:10227000FC910190F081E02DC7010995C80FD91F8D
:10228000015010400115110571F7CE01DF91CF917A
:102290001F910F91FF90EF90DF90CF900895EF92F4
:1022A000FF920F931F93CF93DF937C018B01C0E0CC
:1022B000D0E0F8010F5F1F4F6491662359F0D701FA
:1022C000ED91FC910190F081E02DC7010995C80FB7
:1022D000D91FEFCFCE01DF91CF911F910F91FF90CA
:1022E000EF900895DC01ED91FC910190F081E02DDB
:1022F00009950895EF92FF920F931F938C01DC01D3
:10230000ED91FC910190F081E02D6DE009957C014B
:10231000D801ED91FC910190F081E02DC8016AE0B7
:1023200009959C012E0D3F1DC9011F910F91FF9032
:10233000EF900895EF92FF920F931F937C010E94FC
:102340004F118C01C7010E947A119C01200F311F8F
:10235000C9011F910F91FF90EF900895EF92FF92A6
:102360000F931F937C01DC01ED91FC910190F081B2
:10237000E02D09958C01C7010E947A11080F191FE1
:10238000C8011F910F91FF90EF900895CF93DF93B5
:10239000EC016115710519F420E030E00FC0DB019C
:1023A0000D900020E9F71197A61BB70BE881F98182
:1023B0000280F381E02DAD0109959C01C901DF91F7
:1023C000CF9108954F925F927F928F929F92AF929A
:1023D000BF92CF92DF92EF92FF920F931F93DF9302
:1023E000CF93CDB7DEB7A1970FB6F894DEBF0FBE7F
:1023F000CDBF2C01742ECB01223008F42AE019A2A3
:1024000031E2C32ED12CCC0EDD1E822E9924AA24BB
:10241000BB24672D752FA50194010E949C1579019D
:102420008A01C801B701A50194010E945615472DE4
:10243000461B0894C108D1084A3014F4405D01C01D
:10244000495CF6014083E114F1040105110521F016
:102450007E2C5F2DC801DDCFC201B6010E94C611DE
:10246000A1960FB6F894DEBF0FBECDBFCF91DF911E
:102470001F910F91FF90EF90DF90CF90BF90AF90A2
:102480009F908F907F905F904F900895DC01211571
:10249000310541F4ED91FC910190F081E02D642F24
:1024A000099508950E94E2110895EF92FF920F930B
:1024B0001F939A017B0100E010E0B801A7010E9480
:1024C00046121F910F91FF90EF900895CF92DF92E7
:1024D000EF92FF920F931F936C017B019A0100E032
:1024E00010E0B801A7010E9446128C01C6010E94AB
:1024F0007A11080F191FC8011F910F91FF90EF90DB
:10250000DF90CF900895EF92FF920F931F939A015F
:10251000E62EFF2400E010E0B801A7010E94461259
:102520001F910F91FF90EF900895CF92DF92EF925D
:10253000FF920F931F93CF93DF93EC016A017B010E
:102540002115310541F4E881F9810190F081E02DF8
:10255000642F09951FC02A303105D1F477FF17C0C9
:10256000E881F9810190F081E02D6DE209958C01FF
:1025700044275527BA014C195D096E097F09CE0120
:102580002AE00E94E2119801280F391F04C02AE0B6
:102590000E94E2119C01C901DF91CF911F910F911F
:1025A000FF90EF90DF90CF900895EF92FF920F93FE
:1025B0001F937B019A010027F7FC0095102FB801AB
:1025C000A7010E9495121F910F91FF90EF9008951F
:1025D0000E94C6110895EF92FF920F931F937C0102
:1025E0000E94C6118C01C7010E947A11080F191FA1
:1025F000C8011F910F91FF90EF900895CF93DF9343
:102600000E9469130E940A05C0E1D0E10E94D8042B
:102610002097E1F30E941010F9CF0E94470E089511
:102620000E94AA0D08951F920F920FB60F921124C7
:102630002F933F938F939F93AF93BF9380912404E5
:1026400090912504A0912604B0912704309128048C
:102650000196A11DB11D232F2D5F2D3720F02D5781
:102660000196A11DB11D209328048093240490930A
:102670002504A0932604B093270480912004909110
:102680002104A0912204B09123040196A11DB11D43
:102690008093200490932104A0932204B0932304F8
:1026A000BF91AF919F918F913F912F910F900FBE4E
:1026B0000F901F9018958FB7F894209124043091B3
:1026C000250440912604509127048FBFB901CA0107
:1026D0000895789484B5826084BD84B5816084BD9A
:1026E00085B5826085BD85B5816085BDEEE6F0E08B
:1026F000808181608083E1E8F0E0108280818260E7
:102700008083808181608083E0E8F0E08081816067
:102710008083E1EBF0E0808184608083E0EBF0E097
:10272000808181608083EAE7F0E08081846080833B
:1027300080818260808380818160808380818068E5
:1027400080831092C1000895EF92FF920F931F9320
:10275000CF93DF937B018C013FB7F89480912004E5
:1027600090912104A0912204B091230426B5A89B46
:1027700005C02F3F19F00196A11DB11D3FBFBA2F13
:10278000A92F982F8827820F911DA11DB11D52E0FE
:10279000880F991FAA1FBB1F5A95D1F7EC0130C0B3
:1027A0000E949F143FB7F8948091200490912104D7
:1027B000A0912204B091230426B5A89B05C02F3F09
:1027C00019F00196A11DB11D3FBFBA2FA92F982F57
:1027D0008827820F911DA11DB11D32E0880F991F1E
:1027E000AA1FBB1F3A95D1F78C1B9D0B885E9340A7
:1027F000B8F20894E108F10801091109C851DC4F49
:10280000E114F1040105110559F6DF91CF911F91F3
:102810000F91FF90EF900895CF93DF93482F50E0F2
:10282000CA018C56974FFC0134914058574FFA011A
:102830008491882369F190E0880F991FFC01EE597B
:10284000F74FA591B491FC01E459F74FC591D4918C
:10285000662351F42FB7F8948C91932F9095892388
:102860008C93888189230BC0623061F42FB7F89470
:102870008C91932F909589238C938881832B8883C7
:102880002FBF06C09FB7F8948C91832B8C939FBF6A
:10289000DF91CF910895482F50E0CA018855974F96
:1028A000FC012491CA018C56974FFC019491405829
:1028B000574FFA013491332309F440C0222351F1D8
:1028C000233071F0243028F42130A1F0223011F5AA
:1028D00014C02630B1F02730C1F02430D9F404C040
:1028E000809180008F7703C0809180008F7D8093DE
:1028F000800010C084B58F7702C084B58F7D84BD01
:1029000009C08091B0008F7703C08091B0008F7DA7
:102910008093B000E32FF0E0EE0FFF1FE459F74F74
:10292000A591B4912FB7F894662321F48C919095DA
:10293000892302C08C91892B8C932FBF0895089511
:102940005058BB27AA270ED077C068D030F06DD082
:1029500020F031F49F3F11F41EF45DC00EF4E095B9
:10296000E7FB53C0E92F79D080F3BA1762077307EA
:102970008407950718F071F49EF591C00EF4E09568
:102980000B2EBA2FA02D0B01B90190010C01CA0129
:10299000A0011124FF27591B99F0593F50F4503ED4
:1029A00068F11A16F040A22F232F342F4427585FC6
:1029B000F3CF469537952795A795F0405395C9F7DE
:1029C0007EF41F16BA0B620B730B840BBAF0915096
:1029D000A1F0FF0FBB1F661F771F881FC2F70EC035
:1029E000BA0F621F731F841F48F487957795679508
:1029F000B795F7959E3F08F0B3CF9395880F08F0F1
:102A00009927EE0F97958795089597F99F6780E826
:102A100070E060E008959FEF80EC089500240A9430
:102A20001616170618060906089500240A941216A9
:102A30001306140605060895092E0394000C11F4DC
:102A4000882352F0BB0F40F4BF2B11F460FF04C089
:102A50006F5F7F4F8F4F9F4F089557FD9058440FE2
:102A6000551F59F05F3F71F04795880F97FB991FED
:102A700061F09F3F79F087950895121613061406AA
:102A8000551FF2CF4695F1DF08C016161706180637
:102A9000991FF1CF86957105610508940895E89412
:102AA000BB2766277727CB0197F90895629FD0014E
:102AB000739FF001829FE00DF11D649FE00DF11DF9
:102AC000929FF00D839FF00D749FF00D659FF00DA8
:102AD0009927729FB00DE11DF91F639FB00DE11D95
:102AE000F91FBD01CF0111240895AA1BBB1B51E1A1
:102AF00007C0AA1FBB1FA617B70710F0A61BB70B6E
:102B0000881F991F5A95A9F780959095BC01CD0112
:102B1000089597FB092E07260AD077FD04D0E5DF3C
:102B200006D000201AF4709561957F4F0895F6F74E
:102B3000909581959F4F0895A1E21A2EAA1BBB1B69
:102B4000FD010DC0AA1FBB1FEE1FFF1FA217B30779
:102B5000E407F50720F0A21BB30BE40BF50B661F8F
:102B6000771F881F991F1A9469F760957095809553
:102B700090959B01AC01BD01CF010895EE0FFF1FA1
:102B80000590F491E02D0994803209F0911104C070
:102B900080528F55E0F7089599278827089518E007
:102BA000C6ECD8E004C0FE010E94C0152296C83CC5
:082BB000D107C9F7F894FFCF2B
:102BB8004368616E6E656C2031206368616E67657D
:102BC800643A004368616E6E656C20322063686108
:102BD8006E6765643A0053656C6563746564204389
:102BE80068616E6E656C206973206E6F7420617603
:102BF80061696C61626C6520696E20746869732014
:102C0800736B657463682E00496E74656E736974BE
:102C1800793A09005374657054696D653A09005230
:102C28006561647920666F722045636C69707365AD
:102C3800004661696C656420746F207374617274F6
:102C4800207769666C79004A6F696E696E67206ED5
:102C58006574776F726B004A6F696E656420776977
:102C68006669206E6574776F726B004661696C6582
:102C78006420746F206A6F696E2077696669206EB8
:102C88006574776F726B00416C7265616479206A54
:102C98006F696E6564206E6574776F726B00313989
:102CA800322E3136382E332E39005769666C792D1D
:102CB80055445000436F6E6E6563746564005374C9
:102CC800617274696E67204348414E4E454C20310D
:102CD800002020000180002D0400000000000012E8
:102CE800062511580549057605670500000000B856
:102CF8000525118F070C08E505050600000000AE44
:102D0800099C0900000000300C2511160CF50BF386
:102D18000CE20C00000000D00F2511730F8F0F7FFD
:0A2D28000FAD0F00000000E31000E3
:00000001FF
